{
  "contractName": "PlayerStats",
  "abi": [
    {
      "inputs": [
        {
          "internalType": "address",
          "name": "",
          "type": "address"
        }
      ],
      "name": "coaches",
      "outputs": [
        {
          "internalType": "string",
          "name": "name",
          "type": "string"
        },
        {
          "internalType": "address",
          "name": "id",
          "type": "address"
        },
        {
          "internalType": "string",
          "name": "teamName",
          "type": "string"
        },
        {
          "internalType": "uint256",
          "name": "playerCount",
          "type": "uint256"
        }
      ],
      "stateMutability": "view",
      "type": "function",
      "constant": true
    },
    {
      "inputs": [
        {
          "internalType": "string",
          "name": "",
          "type": "string"
        }
      ],
      "name": "players",
      "outputs": [
        {
          "internalType": "string",
          "name": "name",
          "type": "string"
        },
        {
          "internalType": "uint256",
          "name": "age",
          "type": "uint256"
        },
        {
          "internalType": "address",
          "name": "coachid",
          "type": "address"
        },
        {
          "internalType": "string",
          "name": "teamName",
          "type": "string"
        },
        {
          "internalType": "uint256",
          "name": "gamesPlayed",
          "type": "uint256"
        },
        {
          "internalType": "uint256",
          "name": "goalsScored",
          "type": "uint256"
        },
        {
          "internalType": "uint256",
          "name": "minutesPlayed",
          "type": "uint256"
        },
        {
          "internalType": "string",
          "name": "position",
          "type": "string"
        }
      ],
      "stateMutability": "view",
      "type": "function",
      "constant": true
    },
    {
      "inputs": [
        {
          "internalType": "string",
          "name": "_name",
          "type": "string"
        },
        {
          "internalType": "string",
          "name": "_teamName",
          "type": "string"
        }
      ],
      "name": "addCoach",
      "outputs": [],
      "stateMutability": "nonpayable",
      "type": "function"
    },
    {
      "inputs": [
        {
          "internalType": "string",
          "name": "_name",
          "type": "string"
        },
        {
          "internalType": "uint256",
          "name": "_age",
          "type": "uint256"
        },
        {
          "internalType": "string",
          "name": "_position",
          "type": "string"
        }
      ],
      "name": "addPlayer",
      "outputs": [],
      "stateMutability": "nonpayable",
      "type": "function"
    },
    {
      "inputs": [],
      "name": "removeCoach",
      "outputs": [],
      "stateMutability": "nonpayable",
      "type": "function"
    },
    {
      "inputs": [
        {
          "internalType": "string",
          "name": "_name",
          "type": "string"
        },
        {
          "internalType": "uint256",
          "name": "_gamesPlayed",
          "type": "uint256"
        },
        {
          "internalType": "uint256",
          "name": "_goalsScored",
          "type": "uint256"
        },
        {
          "internalType": "uint256",
          "name": "_minutesPlayed",
          "type": "uint256"
        }
      ],
      "name": "updateStats",
      "outputs": [],
      "stateMutability": "nonpayable",
      "type": "function"
    },
    {
      "inputs": [
        {
          "internalType": "string",
          "name": "_name",
          "type": "string"
        }
      ],
      "name": "getPlayersStats",
      "outputs": [
        {
          "internalType": "string",
          "name": "",
          "type": "string"
        },
        {
          "internalType": "uint256",
          "name": "",
          "type": "uint256"
        },
        {
          "internalType": "string",
          "name": "",
          "type": "string"
        },
        {
          "internalType": "string",
          "name": "",
          "type": "string"
        },
        {
          "internalType": "string",
          "name": "",
          "type": "string"
        },
        {
          "internalType": "uint256",
          "name": "",
          "type": "uint256"
        },
        {
          "internalType": "uint256",
          "name": "",
          "type": "uint256"
        },
        {
          "internalType": "uint256",
          "name": "",
          "type": "uint256"
        }
      ],
      "stateMutability": "view",
      "type": "function",
      "constant": true
    },
    {
      "inputs": [
        {
          "internalType": "address",
          "name": "_id",
          "type": "address"
        }
      ],
      "name": "getCoach",
      "outputs": [
        {
          "internalType": "string",
          "name": "",
          "type": "string"
        },
        {
          "internalType": "address",
          "name": "",
          "type": "address"
        },
        {
          "internalType": "string",
          "name": "",
          "type": "string"
        }
      ],
      "stateMutability": "view",
      "type": "function",
      "constant": true
    }
  ],
  "bytecode": "0x608060405234801561001057600080fd5b50612362806100206000396000f3fe608060405234801561001057600080fd5b50600436106100885760003560e01c8063aab48c521161005b578063aab48c521461014a578063b1f63d8914610166578063f602d4af14610170578063ffa8dcff1461018c57610088565b806311da99201461008d578063512b5648146100c4578063a1925d02146100e0578063aa6bbeda14610117575b600080fd5b6100a760048036038101906100a291906119e8565b6101be565b6040516100bb989796959493929190611ad2565b60405180910390f35b6100de60048036038101906100d99190611b98565b61053e565b005b6100fa60048036038101906100f591906119e8565b6106e9565b60405161010e989796959493929190611c5c565b60405180910390f35b610131600480360381019061012c9190611d1b565b6108ff565b6040516101419493929190611d48565b60405180910390f35b610164600480360381019061015f9190611d9b565b610a5f565b005b61016e610f7f565b005b61018a60048036038101906101859190611e26565b611233565b005b6101a660048036038101906101a19190611d1b565b61147f565b6040516101b593929190611e9e565b60405180910390f35b60606000606080606060008060008060008a6040516101dd9190611f1f565b90815260200160405180910390206040518061010001604052908160008201805461020790611f65565b80601f016020809104026020016040519081016040528092919081815260200182805461023390611f65565b80156102805780601f1061025557610100808354040283529160200191610280565b820191906000526020600020905b81548152906001019060200180831161026357829003601f168201915b50505050508152602001600182015481526020016002820160009054906101000a900473ffffffffffffffffffffffffffffffffffffffff1673ffffffffffffffffffffffffffffffffffffffff1673ffffffffffffffffffffffffffffffffffffffff1681526020016003820180546102f990611f65565b80601f016020809104026020016040519081016040528092919081815260200182805461032590611f65565b80156103725780601f1061034757610100808354040283529160200191610372565b820191906000526020600020905b81548152906001019060200180831161035557829003601f168201915b505050505081526020016004820154815260200160058201548152602001600682015481526020016007820180546103a990611f65565b80601f01602080910402602001604051908101604052809291908181526020018280546103d590611f65565b80156104225780601f106103f757610100808354040283529160200191610422565b820191906000526020600020905b81548152906001019060200180831161040557829003601f168201915b50505050508152505090508060000151816020015182606001518360e0015160016000866040015173ffffffffffffffffffffffffffffffffffffffff1673ffffffffffffffffffffffffffffffffffffffff16815260200190815260200160002060000185608001518660a001518760c001518380546104a290611f65565b80601f01602080910402602001604051908101604052809291908181526020018280546104ce90611f65565b801561051b5780601f106104f05761010080835404028352916020019161051b565b820191906000526020600020905b8154815290600101906020018083116104fe57829003601f168201915b505050505093509850985098509850985098509850985050919395975091939597565b3373ffffffffffffffffffffffffffffffffffffffff166000856040516105659190611f1f565b908152602001604051809103902060020160009054906101000a900473ffffffffffffffffffffffffffffffffffffffff1673ffffffffffffffffffffffffffffffffffffffff16146105ed576040517f08c379a00000000000000000000000000000000000000000000000000000000081526004016105e490611fe3565b60405180910390fd5b826000856040516105fe9190611f1f565b90815260200160405180910390206004015461061a9190612032565b60008560405161062a9190611f1f565b908152602001604051809103902060040181905550816000856040516106509190611f1f565b90815260200160405180910390206005015461066c9190612032565b60008560405161067c9190611f1f565b908152602001604051809103902060050181905550806000856040516106a29190611f1f565b9081526020016040518091039020600601546106be9190612032565b6000856040516106ce9190611f1f565b90815260200160405180910390206006018190555050505050565b60008180516020810182018051848252602083016020850120818352809550505050505060009150905080600001805461072290611f65565b80601f016020809104026020016040519081016040528092919081815260200182805461074e90611f65565b801561079b5780601f106107705761010080835404028352916020019161079b565b820191906000526020600020905b81548152906001019060200180831161077e57829003601f168201915b5050505050908060010154908060020160009054906101000a900473ffffffffffffffffffffffffffffffffffffffff16908060030180546107dc90611f65565b80601f016020809104026020016040519081016040528092919081815260200182805461080890611f65565b80156108555780601f1061082a57610100808354040283529160200191610855565b820191906000526020600020905b81548152906001019060200180831161083857829003601f168201915b50505050509080600401549080600501549080600601549080600701805461087c90611f65565b80601f01602080910402602001604051908101604052809291908181526020018280546108a890611f65565b80156108f55780601f106108ca576101008083540402835291602001916108f5565b820191906000526020600020905b8154815290600101906020018083116108d857829003601f168201915b5050505050905088565b600160205280600052604060002060009150905080600001805461092290611f65565b80601f016020809104026020016040519081016040528092919081815260200182805461094e90611f65565b801561099b5780601f106109705761010080835404028352916020019161099b565b820191906000526020600020905b81548152906001019060200180831161097e57829003601f168201915b5050505050908060010160009054906101000a900473ffffffffffffffffffffffffffffffffffffffff16908060020180546109d690611f65565b80601f0160208091040260200160405190810160405280929190818152602001828054610a0290611f65565b8015610a4f5780601f10610a2457610100808354040283529160200191610a4f565b820191906000526020600020905b815481529060010190602001808311610a3257829003601f168201915b5050505050908060030154905084565b3373ffffffffffffffffffffffffffffffffffffffff16600160003373ffffffffffffffffffffffffffffffffffffffff1673ffffffffffffffffffffffffffffffffffffffff16815260200190815260200160002060010160009054906101000a900473ffffffffffffffffffffffffffffffffffffffff1673ffffffffffffffffffffffffffffffffffffffff1614610b2f576040517f08c379a0000000000000000000000000000000000000000000000000000000008152600401610b26906120d4565b60405180910390fd5b60008084604051610b409190611f1f565b90815260200160405180910390206000018054610b5c90611f65565b905014610b9e576040517f08c379a0000000000000000000000000000000000000000000000000000000008152600401610b9590612140565b60405180910390fd5b82600084604051610baf9190611f1f565b90815260200160405180910390206000019080519060200190610bd3929190611691565b5081600084604051610be59190611f1f565b90815260200160405180910390206001018190555033600084604051610c0b9190611f1f565b908152602001604051809103902060020160006101000a81548173ffffffffffffffffffffffffffffffffffffffff021916908373ffffffffffffffffffffffffffffffffffffffff160217905550600160003373ffffffffffffffffffffffffffffffffffffffff1673ffffffffffffffffffffffffffffffffffffffff168152602001908152602001600020600201600084604051610cac9190611f1f565b9081526020016040518091039020600301908054610cc990611f65565b610cd4929190611717565b5060008084604051610ce69190611f1f565b90815260200160405180910390206004018190555060008084604051610d0c9190611f1f565b90815260200160405180910390206005018190555060008084604051610d329190611f1f565b90815260200160405180910390206006018190555080600084604051610d589190611f1f565b90815260200160405180910390206007019080519060200190610d7c929190611691565b50600160003373ffffffffffffffffffffffffffffffffffffffff1673ffffffffffffffffffffffffffffffffffffffff1681526020019081526020016000206003016000815480929190610dd090612160565b9190505550600083604051610de59190611f1f565b9081526020016040518091039020600160003373ffffffffffffffffffffffffffffffffffffffff1673ffffffffffffffffffffffffffffffffffffffff1681526020019081526020016000206004016000600160003373ffffffffffffffffffffffffffffffffffffffff1673ffffffffffffffffffffffffffffffffffffffff1681526020019081526020016000206003015481526020019081526020016000206000820181600001908054610e9c90611f65565b610ea79291906117a4565b50600182015481600101556002820160009054906101000a900473ffffffffffffffffffffffffffffffffffffffff168160020160006101000a81548173ffffffffffffffffffffffffffffffffffffffff021916908373ffffffffffffffffffffffffffffffffffffffff1602179055506003820181600301908054610f2d90611f65565b610f389291906117a4565b506004820154816004015560058201548160050155600682015481600601556007820181600701908054610f6b90611f65565b610f769291906117a4565b50905050505050565b3373ffffffffffffffffffffffffffffffffffffffff16600160003373ffffffffffffffffffffffffffffffffffffffff1673ffffffffffffffffffffffffffffffffffffffff16815260200190815260200160002060010160009054906101000a900473ffffffffffffffffffffffffffffffffffffffff1673ffffffffffffffffffffffffffffffffffffffff161461104f576040517f08c379a0000000000000000000000000000000000000000000000000000000008152600401611046906121f5565b60405180910390fd5b6000600190505b600160003373ffffffffffffffffffffffffffffffffffffffff1673ffffffffffffffffffffffffffffffffffffffff16815260200190815260200160002060030154811161119f576000600160003373ffffffffffffffffffffffffffffffffffffffff1673ffffffffffffffffffffffffffffffffffffffff168152602001908152602001600020600401600083815260200190815260200160002060000160405161110491906122a9565b9081526020016040518091039020600080820160006111239190611831565b60018201600090556002820160006101000a81549073ffffffffffffffffffffffffffffffffffffffff02191690556003820160006111629190611831565b60048201600090556005820160009055600682016000905560078201600061118a9190611831565b5050808061119790612160565b915050611056565b50600160003373ffffffffffffffffffffffffffffffffffffffff1673ffffffffffffffffffffffffffffffffffffffff168152602001908152602001600020600080820160006111f09190611831565b6001820160006101000a81549073ffffffffffffffffffffffffffffffffffffffff02191690556002820160006112279190611831565b60038201600090555050565b3373ffffffffffffffffffffffffffffffffffffffff16600160003373ffffffffffffffffffffffffffffffffffffffff1673ffffffffffffffffffffffffffffffffffffffff16815260200190815260200160002060010160009054906101000a900473ffffffffffffffffffffffffffffffffffffffff1673ffffffffffffffffffffffffffffffffffffffff161415611304576040517f08c379a00000000000000000000000000000000000000000000000000000000081526004016112fb9061230c565b60405180910390fd5b81600160003373ffffffffffffffffffffffffffffffffffffffff1673ffffffffffffffffffffffffffffffffffffffff168152602001908152602001600020600001908051906020019061135a929190611691565b5033600160003373ffffffffffffffffffffffffffffffffffffffff1673ffffffffffffffffffffffffffffffffffffffff16815260200190815260200160002060010160006101000a81548173ffffffffffffffffffffffffffffffffffffffff021916908373ffffffffffffffffffffffffffffffffffffffff16021790555080600160003373ffffffffffffffffffffffffffffffffffffffff1673ffffffffffffffffffffffffffffffffffffffff1681526020019081526020016000206002019080519060200190611432929190611691565b506000600160003373ffffffffffffffffffffffffffffffffffffffff1673ffffffffffffffffffffffffffffffffffffffff168152602001908152602001600020600301819055505050565b606060006060600160008573ffffffffffffffffffffffffffffffffffffffff1673ffffffffffffffffffffffffffffffffffffffff168152602001908152602001600020600001600160008673ffffffffffffffffffffffffffffffffffffffff1673ffffffffffffffffffffffffffffffffffffffff16815260200190815260200160002060010160009054906101000a900473ffffffffffffffffffffffffffffffffffffffff16600160008773ffffffffffffffffffffffffffffffffffffffff1673ffffffffffffffffffffffffffffffffffffffff16815260200190815260200160002060020182805461157890611f65565b80601f01602080910402602001604051908101604052809291908181526020018280546115a490611f65565b80156115f15780601f106115c6576101008083540402835291602001916115f1565b820191906000526020600020905b8154815290600101906020018083116115d457829003601f168201915b5050505050925080805461160490611f65565b80601f016020809104026020016040519081016040528092919081815260200182805461163090611f65565b801561167d5780601f106116525761010080835404028352916020019161167d565b820191906000526020600020905b81548152906001019060200180831161166057829003601f168201915b505050505090509250925092509193909250565b82805461169d90611f65565b90600052602060002090601f0160209004810192826116bf5760008555611706565b82601f106116d857805160ff1916838001178555611706565b82800160010185558215611706579182015b828111156117055782518255916020019190600101906116ea565b5b5090506117139190611871565b5090565b82805461172390611f65565b90600052602060002090601f0160209004810192826117455760008555611793565b82601f106117565780548555611793565b8280016001018555821561179357600052602060002091601f016020900482015b82811115611792578254825591600101919060010190611777565b5b5090506117a09190611871565b5090565b8280546117b090611f65565b90600052602060002090601f0160209004810192826117d25760008555611820565b82601f106117e35780548555611820565b8280016001018555821561182057600052602060002091601f016020900482015b8281111561181f578254825591600101919060010190611804565b5b50905061182d9190611871565b5090565b50805461183d90611f65565b6000825580601f1061184f575061186e565b601f01602090049060005260206000209081019061186d9190611871565b5b50565b5b8082111561188a576000816000905550600101611872565b5090565b6000604051905090565b600080fd5b600080fd5b600080fd5b600080fd5b6000601f19601f8301169050919050565b7f4e487b7100000000000000000000000000000000000000000000000000000000600052604160045260246000fd5b6118f5826118ac565b810181811067ffffffffffffffff82111715611914576119136118bd565b5b80604052505050565b600061192761188e565b905061193382826118ec565b919050565b600067ffffffffffffffff821115611953576119526118bd565b5b61195c826118ac565b9050602081019050919050565b82818337600083830152505050565b600061198b61198684611938565b61191d565b9050828152602081018484840111156119a7576119a66118a7565b5b6119b2848285611969565b509392505050565b600082601f8301126119cf576119ce6118a2565b5b81356119df848260208601611978565b91505092915050565b6000602082840312156119fe576119fd611898565b5b600082013567ffffffffffffffff811115611a1c57611a1b61189d565b5b611a28848285016119ba565b91505092915050565b600081519050919050565b600082825260208201905092915050565b60005b83811015611a6b578082015181840152602081019050611a50565b83811115611a7a576000848401525b50505050565b6000611a8b82611a31565b611a958185611a3c565b9350611aa5818560208601611a4d565b611aae816118ac565b840191505092915050565b6000819050919050565b611acc81611ab9565b82525050565b6000610100820190508181036000830152611aed818b611a80565b9050611afc602083018a611ac3565b8181036040830152611b0e8189611a80565b90508181036060830152611b228188611a80565b90508181036080830152611b368187611a80565b9050611b4560a0830186611ac3565b611b5260c0830185611ac3565b611b5f60e0830184611ac3565b9998505050505050505050565b611b7581611ab9565b8114611b8057600080fd5b50565b600081359050611b9281611b6c565b92915050565b60008060008060808587031215611bb257611bb1611898565b5b600085013567ffffffffffffffff811115611bd057611bcf61189d565b5b611bdc878288016119ba565b9450506020611bed87828801611b83565b9350506040611bfe87828801611b83565b9250506060611c0f87828801611b83565b91505092959194509250565b600073ffffffffffffffffffffffffffffffffffffffff82169050919050565b6000611c4682611c1b565b9050919050565b611c5681611c3b565b82525050565b6000610100820190508181036000830152611c77818b611a80565b9050611c86602083018a611ac3565b611c936040830189611c4d565b8181036060830152611ca58188611a80565b9050611cb46080830187611ac3565b611cc160a0830186611ac3565b611cce60c0830185611ac3565b81810360e0830152611ce08184611a80565b90509998505050505050505050565b611cf881611c3b565b8114611d0357600080fd5b50565b600081359050611d1581611cef565b92915050565b600060208284031215611d3157611d30611898565b5b6000611d3f84828501611d06565b91505092915050565b60006080820190508181036000830152611d628187611a80565b9050611d716020830186611c4d565b8181036040830152611d838185611a80565b9050611d926060830184611ac3565b95945050505050565b600080600060608486031215611db457611db3611898565b5b600084013567ffffffffffffffff811115611dd257611dd161189d565b5b611dde868287016119ba565b9350506020611def86828701611b83565b925050604084013567ffffffffffffffff811115611e1057611e0f61189d565b5b611e1c868287016119ba565b9150509250925092565b60008060408385031215611e3d57611e3c611898565b5b600083013567ffffffffffffffff811115611e5b57611e5a61189d565b5b611e67858286016119ba565b925050602083013567ffffffffffffffff811115611e8857611e8761189d565b5b611e94858286016119ba565b9150509250929050565b60006060820190508181036000830152611eb88186611a80565b9050611ec76020830185611c4d565b8181036040830152611ed98184611a80565b9050949350505050565b600081905092915050565b6000611ef982611a31565b611f038185611ee3565b9350611f13818560208601611a4d565b80840191505092915050565b6000611f2b8284611eee565b915081905092915050565b7f4e487b7100000000000000000000000000000000000000000000000000000000600052602260045260246000fd5b60006002820490506001821680611f7d57607f821691505b60208210811415611f9157611f90611f36565b5b50919050565b7f596f7520617265206e6f74207468697320706c61796572277320636f61636821600082015250565b6000611fcd602083611a3c565b9150611fd882611f97565b602082019050919050565b60006020820190508181036000830152611ffc81611fc0565b9050919050565b7f4e487b7100000000000000000000000000000000000000000000000000000000600052601160045260246000fd5b600061203d82611ab9565b915061204883611ab9565b9250827fffffffffffffffffffffffffffffffffffffffffffffffffffffffffffffffff0382111561207d5761207c612003565b5b828201905092915050565b7f596f7520617265206e6f74206120636f61636821000000000000000000000000600082015250565b60006120be601483611a3c565b91506120c982612088565b602082019050919050565b600060208201905081810360008301526120ed816120b1565b9050919050565b7f5468697320706c6179657220616c726561647920657869737473210000000000600082015250565b600061212a601b83611a3c565b9150612135826120f4565b602082019050919050565b600060208201905081810360008301526121598161211d565b9050919050565b600061216b82611ab9565b91507fffffffffffffffffffffffffffffffffffffffffffffffffffffffffffffffff82141561219e5761219d612003565b5b600182019050919050565b7f596f7520617265206e6f74206120636f61636800000000000000000000000000600082015250565b60006121df601383611a3c565b91506121ea826121a9565b602082019050919050565b6000602082019050818103600083015261220e816121d2565b9050919050565b60008190508160005260206000209050919050565b6000815461223781611f65565b6122418186611ee3565b9450600182166000811461225c576001811461226d576122a0565b60ff198316865281860193506122a0565b61227685612215565b60005b8381101561229857815481890152600182019150602081019050612279565b838801955050505b50505092915050565b60006122b5828461222a565b915081905092915050565b7f5468697320636f61636820616c72656164792065786973747321000000000000600082015250565b60006122f6601a83611a3c565b9150612301826122c0565b602082019050919050565b60006020820190508181036000830152612325816122e9565b905091905056fea2646970667358221220e99e8cc675da29d97dabe7db7d8eb472737a6195a377f100819769496617531864736f6c63430008090033",
  "immutableReferences": {},
  "source": "// SPDX-License-Identifier: MIT\r\npragma solidity ^0.8.9;\r\n\r\ncontract PlayerStats {\r\n\r\n    struct Player {\r\n        string name;\r\n        uint256 age;\r\n        address coachid;\r\n        string teamName;\r\n        uint256 gamesPlayed;\r\n        uint256 goalsScored;\r\n        uint256 minutesPlayed;\r\n        string position;\r\n    }\r\n\r\n    struct Coach {\r\n        string name;\r\n        address id;\r\n        string teamName;\r\n        uint256 playerCount;\r\n        mapping(uint256 => Player) coachsPlayers;\r\n    }\r\n\r\n    mapping (string => Player) public players;\r\n    mapping (address => Coach) public coaches;\r\n\r\n    function addCoach(string memory _name, string memory _teamName) public {\r\n        require(coaches[msg.sender].id != msg.sender, \"This coach already exists!\");\r\n\r\n        coaches[msg.sender].name = _name;\r\n        coaches[msg.sender].id = msg.sender;\r\n        coaches[msg.sender].teamName = _teamName;\r\n        coaches[msg.sender].playerCount = 0;\r\n    }\r\n\r\n    function addPlayer(string memory _name, uint256 _age, string memory _position) public {\r\n        require(coaches[msg.sender].id == msg.sender, \"You are not a coach!\");\r\n        require(bytes(players[_name].name).length == 0, \"This player already exists!\");\r\n\r\n        players[_name].name = _name;\r\n        players[_name].age = _age;\r\n        players[_name].coachid = msg.sender;\r\n        players[_name].teamName = coaches[msg.sender].teamName;\r\n        players[_name].gamesPlayed = 0;\r\n        players[_name].goalsScored = 0;\r\n        players[_name].minutesPlayed = 0;\r\n        players[_name].position = _position;\r\n\r\n        coaches[msg.sender].playerCount++;\r\n        coaches[msg.sender].coachsPlayers[coaches[msg.sender].playerCount] = players[_name];\r\n    }\r\n\r\n    function removeCoach() public {\r\n        require (coaches[msg.sender].id == msg.sender, \"You are not a coach\"); //Coach can only remove themselves as a coach\r\n        for(uint256 i = 1; i <= coaches[msg.sender].playerCount; i++) { //Deletes all the players in the coachsPlayer map for that coach\r\n            delete players[coaches[msg.sender].coachsPlayers[i].name];\r\n        }\r\n        delete coaches[msg.sender]; //Deletes the coach from the coach map\r\n    }\r\n\r\n    function updateStats(string memory _name, uint256 _gamesPlayed, uint256 _goalsScored, uint256 _minutesPlayed) public {\r\n        require (players[_name].coachid == msg.sender, \"You are not this player's coach!\");\r\n        players[_name].gamesPlayed = players[_name].gamesPlayed + _gamesPlayed;\r\n        players[_name].goalsScored = players[_name].goalsScored + _goalsScored;\r\n        players[_name].minutesPlayed = players[_name].minutesPlayed + _minutesPlayed;\r\n    }\r\n\r\n    function getPlayersStats(string memory _name) public view returns(string memory, uint256, string memory, string memory, string memory, uint256, uint256, uint256) {\r\n        Player memory p = players[_name];\r\n        return (p.name, p.age, p.teamName, p.position, coaches[p.coachid].name, p.gamesPlayed, p.goalsScored, p.minutesPlayed);\r\n\r\n    }\r\n\r\n    function getCoach(address _id) public view returns (string memory, address, string memory) {\r\n        return (coaches[_id].name, coaches[_id].id, coaches[_id].teamName);\r\n    }\r\n}",
  "sourcePath": "C:\\Users\\matth\\OneDrive\\Desktop\\PlayerStats\\contracts\\PlayerStats.sol",
  "compiler": {
    "name": "solc",
    "version": "0.8.9+commit.e5eed63a.Emscripten.clang"
  },
  "schemaVersion": "3.4.13",
  "updatedAt": "2023-06-10T19:24:55.545Z",
  "networkType": "ethereum",
  "devdoc": {
    "kind": "dev",
    "methods": {},
    "version": 1
  },
  "userdoc": {
    "kind": "user",
    "methods": {},
    "version": 1
  }
}