{
  "contractName": "PlayerStats",
  "abi": [
    {
      "inputs": [
        {
          "internalType": "address",
          "name": "",
          "type": "address"
        }
      ],
      "name": "coaches",
      "outputs": [
        {
          "internalType": "string",
          "name": "name",
          "type": "string"
        },
        {
          "internalType": "address",
          "name": "id",
          "type": "address"
        },
        {
          "internalType": "string",
          "name": "teamName",
          "type": "string"
        },
        {
          "internalType": "uint256",
          "name": "playerCount",
          "type": "uint256"
        }
      ],
      "stateMutability": "view",
      "type": "function",
      "constant": true
    },
    {
      "inputs": [
        {
          "internalType": "string",
          "name": "",
          "type": "string"
        }
      ],
      "name": "players",
      "outputs": [
        {
          "internalType": "string",
          "name": "name",
          "type": "string"
        },
        {
          "internalType": "uint256",
          "name": "age",
          "type": "uint256"
        },
        {
          "internalType": "address",
          "name": "coachid",
          "type": "address"
        },
        {
          "internalType": "string",
          "name": "teamName",
          "type": "string"
        },
        {
          "internalType": "uint256",
          "name": "gamesPlayed",
          "type": "uint256"
        },
        {
          "internalType": "uint256",
          "name": "goalsScored",
          "type": "uint256"
        },
        {
          "internalType": "uint256",
          "name": "minutesPlayed",
          "type": "uint256"
        },
        {
          "internalType": "string",
          "name": "position",
          "type": "string"
        }
      ],
      "stateMutability": "view",
      "type": "function",
      "constant": true
    },
    {
      "inputs": [
        {
          "internalType": "string",
          "name": "_name",
          "type": "string"
        },
        {
          "internalType": "string",
          "name": "_teamName",
          "type": "string"
        }
      ],
      "name": "addCoach",
      "outputs": [],
      "stateMutability": "nonpayable",
      "type": "function"
    },
    {
      "inputs": [
        {
          "internalType": "string",
          "name": "_name",
          "type": "string"
        },
        {
          "internalType": "uint256",
          "name": "_age",
          "type": "uint256"
        },
        {
          "internalType": "string",
          "name": "_position",
          "type": "string"
        }
      ],
      "name": "addPlayer",
      "outputs": [],
      "stateMutability": "nonpayable",
      "type": "function"
    },
    {
      "inputs": [],
      "name": "removeCoach",
      "outputs": [],
      "stateMutability": "nonpayable",
      "type": "function"
    },
    {
      "inputs": [
        {
          "internalType": "string",
          "name": "_name",
          "type": "string"
        },
        {
          "internalType": "uint256",
          "name": "_gamesPlayed",
          "type": "uint256"
        },
        {
          "internalType": "uint256",
          "name": "_goalsScored",
          "type": "uint256"
        },
        {
          "internalType": "uint256",
          "name": "_minutesPlayed",
          "type": "uint256"
        }
      ],
      "name": "updateStats",
      "outputs": [],
      "stateMutability": "nonpayable",
      "type": "function"
    },
    {
      "inputs": [
        {
          "internalType": "string",
          "name": "_name",
          "type": "string"
        }
      ],
      "name": "getPlayersStats",
      "outputs": [
        {
          "internalType": "string",
          "name": "",
          "type": "string"
        },
        {
          "internalType": "uint256",
          "name": "",
          "type": "uint256"
        },
        {
          "internalType": "string",
          "name": "",
          "type": "string"
        },
        {
          "internalType": "string",
          "name": "",
          "type": "string"
        },
        {
          "internalType": "string",
          "name": "",
          "type": "string"
        },
        {
          "internalType": "uint256",
          "name": "",
          "type": "uint256"
        },
        {
          "internalType": "uint256",
          "name": "",
          "type": "uint256"
        },
        {
          "internalType": "uint256",
          "name": "",
          "type": "uint256"
        }
      ],
      "stateMutability": "view",
      "type": "function",
      "constant": true
    }
  ],
  "bytecode": "0x608060405234801561001057600080fd5b5061201a806100206000396000f3fe608060405234801561001057600080fd5b506004361061007d5760003560e01c8063aa6bbeda1161005b578063aa6bbeda1461010c578063aab48c521461013f578063b1f63d891461015b578063f602d4af146101655761007d565b806311da992014610082578063512b5648146100b9578063a1925d02146100d5575b600080fd5b61009c600480360381019061009791906116e5565b610181565b6040516100b09897969594939291906117cf565b60405180910390f35b6100d360048036038101906100ce9190611895565b610501565b005b6100ef60048036038101906100ea91906116e5565b6106ac565b604051610103989796959493929190611959565b60405180910390f35b61012660048036038101906101219190611a18565b6108c2565b6040516101369493929190611a45565b60405180910390f35b61015960048036038101906101549190611a98565b610a22565b005b610163610f42565b005b61017f600480360381019061017a9190611b23565b6111f6565b005b60606000606080606060008060008060008a6040516101a09190611bd7565b9081526020016040518091039020604051806101000160405290816000820180546101ca90611c1d565b80601f01602080910402602001604051908101604052809291908181526020018280546101f690611c1d565b80156102435780601f1061021857610100808354040283529160200191610243565b820191906000526020600020905b81548152906001019060200180831161022657829003601f168201915b50505050508152602001600182015481526020016002820160009054906101000a900473ffffffffffffffffffffffffffffffffffffffff1673ffffffffffffffffffffffffffffffffffffffff1673ffffffffffffffffffffffffffffffffffffffff1681526020016003820180546102bc90611c1d565b80601f01602080910402602001604051908101604052809291908181526020018280546102e890611c1d565b80156103355780601f1061030a57610100808354040283529160200191610335565b820191906000526020600020905b81548152906001019060200180831161031857829003601f168201915b5050505050815260200160048201548152602001600582015481526020016006820154815260200160078201805461036c90611c1d565b80601f016020809104026020016040519081016040528092919081815260200182805461039890611c1d565b80156103e55780601f106103ba576101008083540402835291602001916103e5565b820191906000526020600020905b8154815290600101906020018083116103c857829003601f168201915b50505050508152505090508060000151816020015182606001518360e0015160016000866040015173ffffffffffffffffffffffffffffffffffffffff1673ffffffffffffffffffffffffffffffffffffffff16815260200190815260200160002060000185608001518660a001518760c0015183805461046590611c1d565b80601f016020809104026020016040519081016040528092919081815260200182805461049190611c1d565b80156104de5780601f106104b3576101008083540402835291602001916104de565b820191906000526020600020905b8154815290600101906020018083116104c157829003601f168201915b505050505093509850985098509850985098509850985050919395975091939597565b3373ffffffffffffffffffffffffffffffffffffffff166000856040516105289190611bd7565b908152602001604051809103902060020160009054906101000a900473ffffffffffffffffffffffffffffffffffffffff1673ffffffffffffffffffffffffffffffffffffffff16146105b0576040517f08c379a00000000000000000000000000000000000000000000000000000000081526004016105a790611c9b565b60405180910390fd5b826000856040516105c19190611bd7565b9081526020016040518091039020600401546105dd9190611cea565b6000856040516105ed9190611bd7565b908152602001604051809103902060040181905550816000856040516106139190611bd7565b90815260200160405180910390206005015461062f9190611cea565b60008560405161063f9190611bd7565b908152602001604051809103902060050181905550806000856040516106659190611bd7565b9081526020016040518091039020600601546106819190611cea565b6000856040516106919190611bd7565b90815260200160405180910390206006018190555050505050565b6000818051602081018201805184825260208301602085012081835280955050505050506000915090508060000180546106e590611c1d565b80601f016020809104026020016040519081016040528092919081815260200182805461071190611c1d565b801561075e5780601f106107335761010080835404028352916020019161075e565b820191906000526020600020905b81548152906001019060200180831161074157829003601f168201915b5050505050908060010154908060020160009054906101000a900473ffffffffffffffffffffffffffffffffffffffff169080600301805461079f90611c1d565b80601f01602080910402602001604051908101604052809291908181526020018280546107cb90611c1d565b80156108185780601f106107ed57610100808354040283529160200191610818565b820191906000526020600020905b8154815290600101906020018083116107fb57829003601f168201915b50505050509080600401549080600501549080600601549080600701805461083f90611c1d565b80601f016020809104026020016040519081016040528092919081815260200182805461086b90611c1d565b80156108b85780601f1061088d576101008083540402835291602001916108b8565b820191906000526020600020905b81548152906001019060200180831161089b57829003601f168201915b5050505050905088565b60016020528060005260406000206000915090508060000180546108e590611c1d565b80601f016020809104026020016040519081016040528092919081815260200182805461091190611c1d565b801561095e5780601f106109335761010080835404028352916020019161095e565b820191906000526020600020905b81548152906001019060200180831161094157829003601f168201915b5050505050908060010160009054906101000a900473ffffffffffffffffffffffffffffffffffffffff169080600201805461099990611c1d565b80601f01602080910402602001604051908101604052809291908181526020018280546109c590611c1d565b8015610a125780601f106109e757610100808354040283529160200191610a12565b820191906000526020600020905b8154815290600101906020018083116109f557829003601f168201915b5050505050908060030154905084565b3373ffffffffffffffffffffffffffffffffffffffff16600160003373ffffffffffffffffffffffffffffffffffffffff1673ffffffffffffffffffffffffffffffffffffffff16815260200190815260200160002060010160009054906101000a900473ffffffffffffffffffffffffffffffffffffffff1673ffffffffffffffffffffffffffffffffffffffff1614610af2576040517f08c379a0000000000000000000000000000000000000000000000000000000008152600401610ae990611d8c565b60405180910390fd5b60008084604051610b039190611bd7565b90815260200160405180910390206000018054610b1f90611c1d565b905014610b61576040517f08c379a0000000000000000000000000000000000000000000000000000000008152600401610b5890611df8565b60405180910390fd5b82600084604051610b729190611bd7565b90815260200160405180910390206000019080519060200190610b9692919061138e565b5081600084604051610ba89190611bd7565b90815260200160405180910390206001018190555033600084604051610bce9190611bd7565b908152602001604051809103902060020160006101000a81548173ffffffffffffffffffffffffffffffffffffffff021916908373ffffffffffffffffffffffffffffffffffffffff160217905550600160003373ffffffffffffffffffffffffffffffffffffffff1673ffffffffffffffffffffffffffffffffffffffff168152602001908152602001600020600201600084604051610c6f9190611bd7565b9081526020016040518091039020600301908054610c8c90611c1d565b610c97929190611414565b5060008084604051610ca99190611bd7565b90815260200160405180910390206004018190555060008084604051610ccf9190611bd7565b90815260200160405180910390206005018190555060008084604051610cf59190611bd7565b90815260200160405180910390206006018190555080600084604051610d1b9190611bd7565b90815260200160405180910390206007019080519060200190610d3f92919061138e565b50600160003373ffffffffffffffffffffffffffffffffffffffff1673ffffffffffffffffffffffffffffffffffffffff1681526020019081526020016000206003016000815480929190610d9390611e18565b9190505550600083604051610da89190611bd7565b9081526020016040518091039020600160003373ffffffffffffffffffffffffffffffffffffffff1673ffffffffffffffffffffffffffffffffffffffff1681526020019081526020016000206004016000600160003373ffffffffffffffffffffffffffffffffffffffff1673ffffffffffffffffffffffffffffffffffffffff1681526020019081526020016000206003015481526020019081526020016000206000820181600001908054610e5f90611c1d565b610e6a9291906114a1565b50600182015481600101556002820160009054906101000a900473ffffffffffffffffffffffffffffffffffffffff168160020160006101000a81548173ffffffffffffffffffffffffffffffffffffffff021916908373ffffffffffffffffffffffffffffffffffffffff1602179055506003820181600301908054610ef090611c1d565b610efb9291906114a1565b506004820154816004015560058201548160050155600682015481600601556007820181600701908054610f2e90611c1d565b610f399291906114a1565b50905050505050565b3373ffffffffffffffffffffffffffffffffffffffff16600160003373ffffffffffffffffffffffffffffffffffffffff1673ffffffffffffffffffffffffffffffffffffffff16815260200190815260200160002060010160009054906101000a900473ffffffffffffffffffffffffffffffffffffffff1673ffffffffffffffffffffffffffffffffffffffff1614611012576040517f08c379a000000000000000000000000000000000000000000000000000000000815260040161100990611ead565b60405180910390fd5b6000600190505b600160003373ffffffffffffffffffffffffffffffffffffffff1673ffffffffffffffffffffffffffffffffffffffff168152602001908152602001600020600301548111611162576000600160003373ffffffffffffffffffffffffffffffffffffffff1673ffffffffffffffffffffffffffffffffffffffff16815260200190815260200160002060040160008381526020019081526020016000206000016040516110c79190611f61565b9081526020016040518091039020600080820160006110e6919061152e565b60018201600090556002820160006101000a81549073ffffffffffffffffffffffffffffffffffffffff0219169055600382016000611125919061152e565b60048201600090556005820160009055600682016000905560078201600061114d919061152e565b5050808061115a90611e18565b915050611019565b50600160003373ffffffffffffffffffffffffffffffffffffffff1673ffffffffffffffffffffffffffffffffffffffff168152602001908152602001600020600080820160006111b3919061152e565b6001820160006101000a81549073ffffffffffffffffffffffffffffffffffffffff02191690556002820160006111ea919061152e565b60038201600090555050565b600073ffffffffffffffffffffffffffffffffffffffff16600160003373ffffffffffffffffffffffffffffffffffffffff1673ffffffffffffffffffffffffffffffffffffffff16815260200190815260200160002060010160009054906101000a900473ffffffffffffffffffffffffffffffffffffffff1673ffffffffffffffffffffffffffffffffffffffff16146112c7576040517f08c379a00000000000000000000000000000000000000000000000000000000081526004016112be90611fc4565b60405180910390fd5b6000600160003373ffffffffffffffffffffffffffffffffffffffff1673ffffffffffffffffffffffffffffffffffffffff16815260200190815260200160002090508281600001908051906020019061132292919061138e565b50338160010160006101000a81548173ffffffffffffffffffffffffffffffffffffffff021916908373ffffffffffffffffffffffffffffffffffffffff1602179055508181600201908051906020019061137e92919061138e565b5060008160030181905550505050565b82805461139a90611c1d565b90600052602060002090601f0160209004810192826113bc5760008555611403565b82601f106113d557805160ff1916838001178555611403565b82800160010185558215611403579182015b828111156114025782518255916020019190600101906113e7565b5b509050611410919061156e565b5090565b82805461142090611c1d565b90600052602060002090601f0160209004810192826114425760008555611490565b82601f106114535780548555611490565b8280016001018555821561149057600052602060002091601f016020900482015b8281111561148f578254825591600101919060010190611474565b5b50905061149d919061156e565b5090565b8280546114ad90611c1d565b90600052602060002090601f0160209004810192826114cf576000855561151d565b82601f106114e0578054855561151d565b8280016001018555821561151d57600052602060002091601f016020900482015b8281111561151c578254825591600101919060010190611501565b5b50905061152a919061156e565b5090565b50805461153a90611c1d565b6000825580601f1061154c575061156b565b601f01602090049060005260206000209081019061156a919061156e565b5b50565b5b8082111561158757600081600090555060010161156f565b5090565b6000604051905090565b600080fd5b600080fd5b600080fd5b600080fd5b6000601f19601f8301169050919050565b7f4e487b7100000000000000000000000000000000000000000000000000000000600052604160045260246000fd5b6115f2826115a9565b810181811067ffffffffffffffff82111715611611576116106115ba565b5b80604052505050565b600061162461158b565b905061163082826115e9565b919050565b600067ffffffffffffffff8211156116505761164f6115ba565b5b611659826115a9565b9050602081019050919050565b82818337600083830152505050565b600061168861168384611635565b61161a565b9050828152602081018484840111156116a4576116a36115a4565b5b6116af848285611666565b509392505050565b600082601f8301126116cc576116cb61159f565b5b81356116dc848260208601611675565b91505092915050565b6000602082840312156116fb576116fa611595565b5b600082013567ffffffffffffffff8111156117195761171861159a565b5b611725848285016116b7565b91505092915050565b600081519050919050565b600082825260208201905092915050565b60005b8381101561176857808201518184015260208101905061174d565b83811115611777576000848401525b50505050565b60006117888261172e565b6117928185611739565b93506117a281856020860161174a565b6117ab816115a9565b840191505092915050565b6000819050919050565b6117c9816117b6565b82525050565b60006101008201905081810360008301526117ea818b61177d565b90506117f9602083018a6117c0565b818103604083015261180b818961177d565b9050818103606083015261181f818861177d565b90508181036080830152611833818761177d565b905061184260a08301866117c0565b61184f60c08301856117c0565b61185c60e08301846117c0565b9998505050505050505050565b611872816117b6565b811461187d57600080fd5b50565b60008135905061188f81611869565b92915050565b600080600080608085870312156118af576118ae611595565b5b600085013567ffffffffffffffff8111156118cd576118cc61159a565b5b6118d9878288016116b7565b94505060206118ea87828801611880565b93505060406118fb87828801611880565b925050606061190c87828801611880565b91505092959194509250565b600073ffffffffffffffffffffffffffffffffffffffff82169050919050565b600061194382611918565b9050919050565b61195381611938565b82525050565b6000610100820190508181036000830152611974818b61177d565b9050611983602083018a6117c0565b611990604083018961194a565b81810360608301526119a2818861177d565b90506119b160808301876117c0565b6119be60a08301866117c0565b6119cb60c08301856117c0565b81810360e08301526119dd818461177d565b90509998505050505050505050565b6119f581611938565b8114611a0057600080fd5b50565b600081359050611a12816119ec565b92915050565b600060208284031215611a2e57611a2d611595565b5b6000611a3c84828501611a03565b91505092915050565b60006080820190508181036000830152611a5f818761177d565b9050611a6e602083018661194a565b8181036040830152611a80818561177d565b9050611a8f60608301846117c0565b95945050505050565b600080600060608486031215611ab157611ab0611595565b5b600084013567ffffffffffffffff811115611acf57611ace61159a565b5b611adb868287016116b7565b9350506020611aec86828701611880565b925050604084013567ffffffffffffffff811115611b0d57611b0c61159a565b5b611b19868287016116b7565b9150509250925092565b60008060408385031215611b3a57611b39611595565b5b600083013567ffffffffffffffff811115611b5857611b5761159a565b5b611b64858286016116b7565b925050602083013567ffffffffffffffff811115611b8557611b8461159a565b5b611b91858286016116b7565b9150509250929050565b600081905092915050565b6000611bb18261172e565b611bbb8185611b9b565b9350611bcb81856020860161174a565b80840191505092915050565b6000611be38284611ba6565b915081905092915050565b7f4e487b7100000000000000000000000000000000000000000000000000000000600052602260045260246000fd5b60006002820490506001821680611c3557607f821691505b60208210811415611c4957611c48611bee565b5b50919050565b7f596f7520617265206e6f74207468697320706c61796572277320636f61636821600082015250565b6000611c85602083611739565b9150611c9082611c4f565b602082019050919050565b60006020820190508181036000830152611cb481611c78565b9050919050565b7f4e487b7100000000000000000000000000000000000000000000000000000000600052601160045260246000fd5b6000611cf5826117b6565b9150611d00836117b6565b9250827fffffffffffffffffffffffffffffffffffffffffffffffffffffffffffffffff03821115611d3557611d34611cbb565b5b828201905092915050565b7f596f7520617265206e6f74206120636f61636821000000000000000000000000600082015250565b6000611d76601483611739565b9150611d8182611d40565b602082019050919050565b60006020820190508181036000830152611da581611d69565b9050919050565b7f5468697320706c6179657220616c726561647920657869737473210000000000600082015250565b6000611de2601b83611739565b9150611ded82611dac565b602082019050919050565b60006020820190508181036000830152611e1181611dd5565b9050919050565b6000611e23826117b6565b91507fffffffffffffffffffffffffffffffffffffffffffffffffffffffffffffffff821415611e5657611e55611cbb565b5b600182019050919050565b7f596f7520617265206e6f74206120636f61636800000000000000000000000000600082015250565b6000611e97601383611739565b9150611ea282611e61565b602082019050919050565b60006020820190508181036000830152611ec681611e8a565b9050919050565b60008190508160005260206000209050919050565b60008154611eef81611c1d565b611ef98186611b9b565b94506001821660008114611f145760018114611f2557611f58565b60ff19831686528186019350611f58565b611f2e85611ecd565b60005b83811015611f5057815481890152600182019150602081019050611f31565b838801955050505b50505092915050565b6000611f6d8284611ee2565b915081905092915050565b7f5468697320636f61636820616c72656164792065786973747321000000000000600082015250565b6000611fae601a83611739565b9150611fb982611f78565b602082019050919050565b60006020820190508181036000830152611fdd81611fa1565b905091905056fea26469706673582212208cb32886fcf020edacd200a90347ef996925d7153e9bf4741f542ddeb2c968cd64736f6c63430008090033",
  "immutableReferences": {},
  "source": "// SPDX-License-Identifier: MIT\r\npragma solidity ^0.8.9;\r\n\r\ncontract PlayerStats {\r\n\r\n    struct Player {\r\n        string name;\r\n        uint256 age;\r\n        address coachid;\r\n        string teamName;\r\n        uint256 gamesPlayed;\r\n        uint256 goalsScored;\r\n        uint256 minutesPlayed;\r\n        string position;\r\n    }\r\n\r\n    struct Coach {\r\n        string name;\r\n        address id;\r\n        string teamName;\r\n        uint256 playerCount;\r\n        mapping(uint256 => Player) coachsPlayers;\r\n    }\r\n\r\n    mapping (string => Player) public players;\r\n    mapping (address => Coach) public coaches;\r\n\r\n    function addCoach(string memory _name, string memory _teamName) public {\r\n        require(coaches[msg.sender].id == address(0), \"This coach already exists!\");\r\n\r\n        Coach storage newCoach = coaches[msg.sender];\r\n        newCoach.name = _name;\r\n        newCoach.id = msg.sender;\r\n        newCoach.teamName = _teamName;\r\n        newCoach.playerCount = 0;\r\n    }\r\n\r\n    function addPlayer(string memory _name, uint256 _age, string memory _position) public {\r\n        require(coaches[msg.sender].id == msg.sender, \"You are not a coach!\");\r\n        require(bytes(players[_name].name).length == 0, \"This player already exists!\");\r\n\r\n        players[_name].name = _name;\r\n        players[_name].age = _age;\r\n        players[_name].coachid = msg.sender;\r\n        players[_name].teamName = coaches[msg.sender].teamName;\r\n        players[_name].gamesPlayed = 0;\r\n        players[_name].goalsScored = 0;\r\n        players[_name].minutesPlayed = 0;\r\n        players[_name].position = _position;\r\n\r\n        coaches[msg.sender].playerCount++;\r\n        coaches[msg.sender].coachsPlayers[coaches[msg.sender].playerCount] = players[_name];\r\n    }\r\n\r\n    function removeCoach() public {\r\n        require (coaches[msg.sender].id == msg.sender, \"You are not a coach\"); //Coach can only remove themselves as a coach\r\n        for(uint256 i = 1; i <= coaches[msg.sender].playerCount; i++) { //Deletes all the players in the coachsPlayer map for that coach\r\n            delete players[coaches[msg.sender].coachsPlayers[i].name];\r\n        }\r\n        delete coaches[msg.sender]; //Deletes the coach from the coach map\r\n    }\r\n\r\n    function updateStats(string memory _name, uint256 _gamesPlayed, uint256 _goalsScored, uint256 _minutesPlayed) public {\r\n        require (players[_name].coachid == msg.sender, \"You are not this player's coach!\");\r\n        players[_name].gamesPlayed = players[_name].gamesPlayed + _gamesPlayed;\r\n        players[_name].goalsScored = players[_name].goalsScored + _goalsScored;\r\n        players[_name].minutesPlayed = players[_name].minutesPlayed + _minutesPlayed;\r\n    }\r\n\r\n    function getPlayersStats(string memory _name) public view returns(string memory, uint256, string memory, string memory, string memory, uint256, uint256, uint256) {\r\n        Player memory p = players[_name];\r\n        return (p.name, p.age, p.teamName, p.position, coaches[p.coachid].name, p.gamesPlayed, p.goalsScored, p.minutesPlayed);\r\n\r\n    }\r\n}",
  "sourcePath": "C:\\Users\\matth\\OneDrive\\Desktop\\playerstats-lab\\PlayerStats\\contracts\\PlayerStats.sol",
  "compiler": {
    "name": "solc",
    "version": "0.8.9+commit.e5eed63a.Emscripten.clang"
  },
  "schemaVersion": "3.4.13",
  "updatedAt": "2023-06-14T21:42:49.905Z",
  "networkType": "ethereum",
  "devdoc": {
    "kind": "dev",
    "methods": {},
    "version": 1
  },
  "userdoc": {
    "kind": "user",
    "methods": {},
    "version": 1
  }
}